{
  "contractName": "VoteCorp",
  "abi": [
    {
      "inputs": [
        {
          "internalType": "uint8",
          "name": "numProposals",
          "type": "uint8"
        }
      ],
      "payable": false,
      "stateMutability": "nonpayable",
      "type": "constructor"
    },
    {
      "anonymous": false,
      "inputs": [],
      "name": "DappInit",
      "type": "event"
    },
    {
      "anonymous": false,
      "inputs": [],
      "name": "RegsStarted",
      "type": "event"
    },
    {
      "anonymous": false,
      "inputs": [
        {
          "indexed": false,
          "internalType": "uint8",
          "name": "winningProposal",
          "type": "uint8"
        }
      ],
      "name": "VotingClosed",
      "type": "event"
    },
    {
      "anonymous": false,
      "inputs": [],
      "name": "VotingStarted",
      "type": "event"
    },
    {
      "anonymous": false,
      "inputs": [
        {
          "indexed": false,
          "internalType": "string",
          "name": "message",
          "type": "string"
        }
      ],
      "name": "voted",
      "type": "event"
    },
    {
      "constant": true,
      "inputs": [],
      "name": "currentPhase",
      "outputs": [
        {
          "internalType": "enum VoteCorp.Phase",
          "name": "",
          "type": "uint8"
        }
      ],
      "payable": false,
      "stateMutability": "view",
      "type": "function"
    },
    {
      "constant": true,
      "inputs": [],
      "name": "voterCount",
      "outputs": [
        {
          "internalType": "uint8",
          "name": "",
          "type": "uint8"
        }
      ],
      "payable": false,
      "stateMutability": "view",
      "type": "function"
    },
    {
      "constant": true,
      "inputs": [],
      "name": "voterToken",
      "outputs": [
        {
          "internalType": "bytes32",
          "name": "",
          "type": "bytes32"
        }
      ],
      "payable": false,
      "stateMutability": "view",
      "type": "function"
    },
    {
      "constant": false,
      "inputs": [
        {
          "internalType": "enum VoteCorp.Phase",
          "name": "phase",
          "type": "uint8"
        }
      ],
      "name": "change",
      "outputs": [],
      "payable": false,
      "stateMutability": "nonpayable",
      "type": "function"
    },
    {
      "constant": false,
      "inputs": [
        {
          "internalType": "address",
          "name": "voter",
          "type": "address"
        }
      ],
      "name": "enterAddress",
      "outputs": [],
      "payable": false,
      "stateMutability": "nonpayable",
      "type": "function"
    },
    {
      "constant": false,
      "inputs": [
        {
          "internalType": "uint8",
          "name": "employeeAge",
          "type": "uint8"
        }
      ],
      "name": "enterEmployeeAge",
      "outputs": [],
      "payable": false,
      "stateMutability": "nonpayable",
      "type": "function"
    },
    {
      "constant": false,
      "inputs": [
        {
          "internalType": "bool",
          "name": "isMember",
          "type": "bool"
        }
      ],
      "name": "enterMember",
      "outputs": [],
      "payable": false,
      "stateMutability": "nonpayable",
      "type": "function"
    },
    {
      "constant": false,
      "inputs": [
        {
          "internalType": "bool",
          "name": "isMemberOfBOP",
          "type": "bool"
        }
      ],
      "name": "enterMemberOfBOP",
      "outputs": [],
      "payable": false,
      "stateMutability": "nonpayable",
      "type": "function"
    },
    {
      "constant": false,
      "inputs": [
        {
          "internalType": "address",
          "name": "voter",
          "type": "address"
        }
      ],
      "name": "register",
      "outputs": [],
      "payable": false,
      "stateMutability": "nonpayable",
      "type": "function"
    },
    {
      "constant": false,
      "inputs": [
        {
          "internalType": "uint8",
          "name": "toProposal",
          "type": "uint8"
        }
      ],
      "name": "vote",
      "outputs": [],
      "payable": false,
      "stateMutability": "nonpayable",
      "type": "function"
    },
    {
      "constant": false,
      "inputs": [],
      "name": "declarePresident",
      "outputs": [
        {
          "internalType": "uint8",
          "name": "winningProposal",
          "type": "uint8"
        }
      ],
      "payable": false,
      "stateMutability": "nonpayable",
      "type": "function"
    },
    {
      "constant": false,
      "inputs": [
        {
          "internalType": "uint8",
          "name": "key",
          "type": "uint8"
        },
        {
          "internalType": "bytes32",
          "name": "password",
          "type": "bytes32"
        }
      ],
      "name": "hashMe",
      "outputs": [],
      "payable": false,
      "stateMutability": "nonpayable",
      "type": "function"
    }
  ],
  "bytecode": "0x60806040526000600460006101000a81548160ff0219169083600381111561002357fe5b02179055506000600460016101000a81548160ff021916908360ff16021790555034801561005057600080fd5b50604051611b16380380611b168339818101604052602081101561007357600080fd5b8101908080519060200190929190505050336000806101000a81548173ffffffffffffffffffffffffffffffffffffffff021916908373ffffffffffffffffffffffffffffffffffffffff16021790555060008090505b8160ff168160ff16101561012b576002604051806020016040528060008152509080600181540180825580915050906001820390600052602060002001600090919290919091506000820151816000015550505080806001019150506100ca565b506002600360008060009054906101000a900473ffffffffffffffffffffffffffffffffffffffff1673ffffffffffffffffffffffffffffffffffffffff1673ffffffffffffffffffffffffffffffffffffffff1681526020019081526020016000206000018190555050611971806101a56000396000f3fe608060405234801561001057600080fd5b50600436106100b45760003560e01c80639323d4d5116100715780639323d4d5146101dd578063b3f98adc146101fb578063c36439091461022c578063c50b0fe91461025c578063cf0df4f91461028c578063f6f9aaa8146102bd576100b4565b8063055ad42e146100b957806342169e48146100e55780634420e486146101095780634b5108451461014d5780636339a2751461018857806391e7feff146101b9575b600080fd5b6100c1610301565b604051808260038111156100d157fe5b60ff16815260200191505060405180910390f35b6100ed610314565b604051808260ff1660ff16815260200191505060405180910390f35b61014b6004803603602081101561011f57600080fd5b81019080803573ffffffffffffffffffffffffffffffffffffffff169060200190929190505050610327565b005b6101866004803603604081101561016357600080fd5b81019080803560ff169060200190929190803590602001909291905050506107c6565b005b6101b76004803603602081101561019e57600080fd5b81019080803560ff169060200190929190505050610967565b005b6101c1610bfa565b604051808260ff1660ff16815260200191505060405180910390f35b6101e5610e19565b6040518082815260200191505060405180910390f35b61022a6004803603602081101561021157600080fd5b81019080803560ff169060200190929190505050610e1f565b005b61025a6004803603602081101561024257600080fd5b81019080803515159060200190929190505050611330565b005b61028a6004803603602081101561027257600080fd5b81019080803515159060200190929190505050611622565b005b6102bb600480360360208110156102a257600080fd5b81019080803560ff16906020019092919050505061173e565b005b6102ff600480360360208110156102d357600080fd5b81019080803573ffffffffffffffffffffffffffffffffffffffff16906020019092919050505061185b565b005b600460009054906101000a900460ff1681565b600460019054906101000a900460ff1681565b600180600381111561033557fe5b600460009054906101000a900460ff16600381111561035057fe5b146103c3576040517f08c379a000000000000000000000000000000000000000000000000000000000815260040180806020018281038252600d8152602001807f496e76616c69642050686173650000000000000000000000000000000000000081525060200191505060405180910390fd5b6000809054906101000a900473ffffffffffffffffffffffffffffffffffffffff1673ffffffffffffffffffffffffffffffffffffffff163373ffffffffffffffffffffffffffffffffffffffff1614610485576040517f08c379a00000000000000000000000000000000000000000000000000000000081526004018080602001828103825260108152602001807f4f6e6c79204368616972706572736f6e0000000000000000000000000000000081525060200191505060405180910390fd5b7fc4124432ae40ed9bd95b70cb9da40389172ce078f626033d49d5b7ce21129a3060001b6005541461051f576040517f08c379a00000000000000000000000000000000000000000000000000000000081526004018080602001828103825260188152602001807f4368616972706572736f6e206e6f74207665726966696564000000000000000081525060200191505060405180910390fd5b60001515600360008473ffffffffffffffffffffffffffffffffffffffff1673ffffffffffffffffffffffffffffffffffffffff16815260200190815260200160002060010160059054906101000a900460ff161515146105e8576040517f08c379a00000000000000000000000000000000000000000000000000000000081526004018080602001828103825260128152602001807f416c72656164792072656769737465726564000000000000000000000000000081525060200191505060405180910390fd5b60011515600360008473ffffffffffffffffffffffffffffffffffffffff1673ffffffffffffffffffffffffffffffffffffffff16815260200190815260200160002060010160039054906101000a900460ff1615151415610691576002600360008473ffffffffffffffffffffffffffffffffffffffff1673ffffffffffffffffffffffffffffffffffffffff168152602001908152602001600020600001819055506106da565b6001600360008473ffffffffffffffffffffffffffffffffffffffff1673ffffffffffffffffffffffffffffffffffffffff168152602001908152602001600020600001819055505b6000600360008473ffffffffffffffffffffffffffffffffffffffff1673ffffffffffffffffffffffffffffffffffffffff16815260200190815260200160002060010160066101000a81548160ff0219169083151502179055506001600360008473ffffffffffffffffffffffffffffffffffffffff1673ffffffffffffffffffffffffffffffffffffffff16815260200190815260200160002060010160056101000a81548160ff0219169083151502179055506004600181819054906101000a900460ff168092919060010191906101000a81548160ff021916908360ff160217905550505050565b6000809054906101000a900473ffffffffffffffffffffffffffffffffffffffff1673ffffffffffffffffffffffffffffffffffffffff163373ffffffffffffffffffffffffffffffffffffffff1614610888576040517f08c379a00000000000000000000000000000000000000000000000000000000081526004018080602001828103825260108152602001807f4f6e6c79204368616972706572736f6e0000000000000000000000000000000081525060200191505060405180910390fd5b600080600381111561089657fe5b600460009054906101000a900460ff1660038111156108b157fe5b14610924576040517f08c379a000000000000000000000000000000000000000000000000000000000815260040180806020018281038252600d8152602001807f496e76616c69642050686173650000000000000000000000000000000000000081525060200191505060405180910390fd5b8282604051602001808360ff1660ff1660f81b81526001018281526020019250505060405160208183030381529060405280519060200120600581905550505050565b6000809054906101000a900473ffffffffffffffffffffffffffffffffffffffff1673ffffffffffffffffffffffffffffffffffffffff163373ffffffffffffffffffffffffffffffffffffffff1614610a29576040517f08c379a00000000000000000000000000000000000000000000000000000000081526004018080602001828103825260108152602001807f4f6e6c79204368616972706572736f6e0000000000000000000000000000000081525060200191505060405180910390fd5b7fc4124432ae40ed9bd95b70cb9da40389172ce078f626033d49d5b7ce21129a3060001b60055414610ac3576040517f08c379a00000000000000000000000000000000000000000000000000000000081526004018080602001828103825260188152602001807f4368616972706572736f6e206e6f74207665726966696564000000000000000081525060200191505060405180910390fd5b80600460006101000a81548160ff02191690836003811115610ae157fe5b021790555060026003811115610af357fe5b600460009054906101000a900460ff166003811115610b0e57fe5b1415610b41577f877e2548498f42b7975a186b94ef1d32c86d420b7b806dd2be2bea293b89590460405160405180910390a15b60016003811115610b4e57fe5b600460009054906101000a900460ff166003811115610b6957fe5b1415610b9c577f1a139efd8344a180cbb6c566dbc24fc33f7fba58141b97f73787b4d8a40d381460405160405180910390a15b60006003811115610ba957fe5b600460009054906101000a900460ff166003811115610bc457fe5b1415610bf7577f4df87601cfd2373fa285dc22341a8b0964af2f06f699eb68e95a2970a7cdd0e660405160405180910390a15b50565b60006003806003811115610c0a57fe5b600460009054906101000a900460ff166003811115610c2557fe5b14610c98576040517f08c379a000000000000000000000000000000000000000000000000000000000815260040180806020018281038252600d8152602001807f496e76616c69642050686173650000000000000000000000000000000000000081525060200191505060405180910390fd5b6000809054906101000a900473ffffffffffffffffffffffffffffffffffffffff1673ffffffffffffffffffffffffffffffffffffffff163373ffffffffffffffffffffffffffffffffffffffff1614610d5a576040517f08c379a00000000000000000000000000000000000000000000000000000000081526004018080602001828103825260108152602001807f4f6e6c79204368616972706572736f6e0000000000000000000000000000000081525060200191505060405180910390fd5b600080905060008090505b6002805490508160ff161015610dcb578160028260ff1681548110610d8657fe5b90600052602060002001600001541115610dbe5760028160ff1681548110610daa57fe5b906000526020600020016000015491508093505b8080600101915050610d65565b506001811015610dd757fe5b7f585514a129129da67c5a5de9724af6760b8744cb04fb2bc3f62c84cfd2d0768583604051808260ff1660ff16815260200191505060405180910390a1505090565b60055481565b6002806003811115610e2d57fe5b600460009054906101000a900460ff166003811115610e4857fe5b14610ebb576040517f08c379a000000000000000000000000000000000000000000000000000000000815260040180806020018281038252600d8152602001807f496e76616c69642050686173650000000000000000000000000000000000000081525060200191505060405180910390fd5b6001151560036000600160009054906101000a900473ffffffffffffffffffffffffffffffffffffffff1673ffffffffffffffffffffffffffffffffffffffff1673ffffffffffffffffffffffffffffffffffffffff16815260200190815260200160002060010160059054906101000a900460ff16151514610fa6576040517f08c379a000000000000000000000000000000000000000000000000000000000815260040180806020018281038252600e8152602001807f4e6f74207265676973746572656400000000000000000000000000000000000081525060200191505060405180910390fd5b6003806000600160009054906101000a900473ffffffffffffffffffffffffffffffffffffffff1673ffffffffffffffffffffffffffffffffffffffff1673ffffffffffffffffffffffffffffffffffffffff16815260200190815260200160002060010160029054906101000a900460ff1660ff161115611090576040517f08c379a00000000000000000000000000000000000000000000000000000000081526004018080602001828103825260138152602001807f566f7465206c696d69742072656163686564210000000000000000000000000081525060200191505060405180910390fd5b6002805490508260ff16106110a457600080fd5b600160036000600160009054906101000a900473ffffffffffffffffffffffffffffffffffffffff1673ffffffffffffffffffffffffffffffffffffffff1673ffffffffffffffffffffffffffffffffffffffff16815260200190815260200160002060010160066101000a81548160ff0219169083151502179055508160036000600160009054906101000a900473ffffffffffffffffffffffffffffffffffffffff1673ffffffffffffffffffffffffffffffffffffffff1673ffffffffffffffffffffffffffffffffffffffff16815260200190815260200160002060010160016101000a81548160ff021916908360ff16021790555060036000600160009054906101000a900473ffffffffffffffffffffffffffffffffffffffff1673ffffffffffffffffffffffffffffffffffffffff1673ffffffffffffffffffffffffffffffffffffffff168152602001908152602001600020600101600281819054906101000a900460ff168092919060010191906101000a81548160ff021916908360ff1602179055505060036000600160009054906101000a900473ffffffffffffffffffffffffffffffffffffffff1673ffffffffffffffffffffffffffffffffffffffff1673ffffffffffffffffffffffffffffffffffffffff1681526020019081526020016000206000015460010260028360ff16815481106112aa57fe5b90600052602060002001600001600082825401925050819055507f135a548ddd56c62744818e527ff3635720303c1025dff2d9a4a3a1a4160323f260405180806020018281038252600a8152602001807f566f74652063617374210000000000000000000000000000000000000000000081525060200191505060405180910390a15050565b6001151560036000600160009054906101000a900473ffffffffffffffffffffffffffffffffffffffff1673ffffffffffffffffffffffffffffffffffffffff1673ffffffffffffffffffffffffffffffffffffffff16815260200190815260200160002060010160049054906101000a900460ff1615151461141b576040517f08c379a000000000000000000000000000000000000000000000000000000000815260040180806020018281038252600d8152602001807f4d656d626572206e65656465640000000000000000000000000000000000000081525060200191505060405180910390fd5b600a60036000600160009054906101000a900473ffffffffffffffffffffffffffffffffffffffff1673ffffffffffffffffffffffffffffffffffffffff1673ffffffffffffffffffffffffffffffffffffffff16815260200190815260200160002060010160009054906101000a900460ff1660ff161015611506576040517f08c379a00000000000000000000000000000000000000000000000000000000081526004018080602001828103825260198152602001807f4c6f6e67207465726d20656d706c6f796565206e65656465640000000000000081525060200191505060405180910390fd5b600180600381111561151457fe5b600460009054906101000a900460ff16600381111561152f57fe5b146115a2576040517f08c379a000000000000000000000000000000000000000000000000000000000815260040180806020018281038252600d8152602001807f496e76616c69642050686173650000000000000000000000000000000000000081525060200191505060405180910390fd5b8160036000600160009054906101000a900473ffffffffffffffffffffffffffffffffffffffff1673ffffffffffffffffffffffffffffffffffffffff1673ffffffffffffffffffffffffffffffffffffffff16815260200190815260200160002060010160036101000a81548160ff0219169083151502179055505050565b600180600381111561163057fe5b600460009054906101000a900460ff16600381111561164b57fe5b146116be576040517f08c379a000000000000000000000000000000000000000000000000000000000815260040180806020018281038252600d8152602001807f496e76616c69642050686173650000000000000000000000000000000000000081525060200191505060405180910390fd5b8160036000600160009054906101000a900473ffffffffffffffffffffffffffffffffffffffff1673ffffffffffffffffffffffffffffffffffffffff1673ffffffffffffffffffffffffffffffffffffffff16815260200190815260200160002060010160046101000a81548160ff0219169083151502179055505050565b600180600381111561174c57fe5b600460009054906101000a900460ff16600381111561176757fe5b146117da576040517f08c379a000000000000000000000000000000000000000000000000000000000815260040180806020018281038252600d8152602001807f496e76616c69642050686173650000000000000000000000000000000000000081525060200191505060405180910390fd5b8160036000600160009054906101000a900473ffffffffffffffffffffffffffffffffffffffff1673ffffffffffffffffffffffffffffffffffffffff1673ffffffffffffffffffffffffffffffffffffffff16815260200190815260200160002060010160006101000a81548160ff021916908360ff1602179055505050565b600180600381111561186957fe5b600460009054906101000a900460ff16600381111561188457fe5b146118f7576040517f08c379a000000000000000000000000000000000000000000000000000000000815260040180806020018281038252600d8152602001807f496e76616c69642050686173650000000000000000000000000000000000000081525060200191505060405180910390fd5b81600160006101000a81548173ffffffffffffffffffffffffffffffffffffffff021916908373ffffffffffffffffffffffffffffffffffffffff160217905550505056fea265627a7a7231582072dc45bddc60be5acd5e07182eaf6cdb219d5da9892527f2eeb4ddd3835996f464736f6c63430005100032",
  "source": "pragma solidity >=0.4.22 <=0.6.6;\r\n\r\ncontract VoteCorp {\r\n    struct Voter {\r\n        uint weight;\r\n        uint8 employeeAge;\r\n        uint8 vote;\r\n        uint8 numVotes;\r\n        bool isMemberOfBOP;\r\n        bool isMember;\r\n        bool isRegistered;\r\n        bool voted;\r\n    }\r\n    \r\n    struct Proposal {\r\n        uint voteCount;\r\n        //bool bondAvail;\r\n    }\r\n    \r\n    address chairperson;\r\n    address voterAddress;\r\n    Proposal[] proposals;\r\n    mapping(address => Voter) voters;\r\n    //mapping(address => Proposal) proposals;\r\n    enum Phase {Init, Regs, Vote, Done}\r\n    Phase public currentPhase = Phase.Init;\r\n    uint8 public voterCount = 0;\r\n    bytes32 public voterToken;\r\n    \r\n    event DappInit();\r\n    event RegsStarted();\r\n    event VotingStarted();\r\n    event VotingClosed(uint8 winningProposal);\r\n    event voted(string message);\r\n    \r\n    modifier validPhase(Phase reqPhase) {\r\n        require(currentPhase == reqPhase, \"Invalid Phase\");\r\n        _;\r\n    }\r\n    \r\n    modifier onlyChair() {\r\n        require(msg.sender == chairperson, \"Only Chairperson\");\r\n        _;\r\n    }\r\n    \r\n    modifier onlyMemberOfCorp() {\r\n        require(voters[voterAddress].isMember == true, \"Member needed\");\r\n        _;\r\n    }\r\n    \r\n    modifier onlyMemberOfBOP() {\r\n        require(voters[voterAddress].isMember == true && voters[voterAddress].isMemberOfBOP == true, \"Board Member needed\");\r\n        _;\r\n    }\r\n    \r\n    modifier checkMax()\r\n    {\r\n        require(voters[voterAddress].numVotes <= 3, \"Vote limit reached!\");\r\n        _;\r\n    }\r\n    \r\n    modifier onlyLongTerm() {\r\n        require(voters[voterAddress].employeeAge >= 10, \"Long term employee needed\");\r\n        _;\r\n    }\r\n    \r\n    modifier checkRegister() {\r\n        require(voters[voterAddress].isRegistered == true, \"Not registered\");\r\n        _;\r\n    }\r\n    \r\n    modifier checkVoted() {\r\n        require(voters[voterAddress].voted == false, \"Already voted\");\r\n        _;\r\n    }\r\n    \r\n    // modifier bondCheck() {\r\n    //     require(proposals[voterAddress].bondAvail == true, \"Must accept bond to register as candidate!\");\r\n    //     _;\r\n    // }\r\n    \r\n    constructor (uint8 numProposals) public {\r\n        chairperson = msg.sender;\r\n        for (uint8 prop = 0; prop < numProposals; prop ++)\r\n            proposals.push(Proposal(0));\r\n        voters[chairperson].weight = 2;\r\n        //state = 1;\r\n    }\r\n    \r\n    function change(Phase phase) onlyChair public {\r\n           \r\n        require(voterToken == 0xc4124432ae40ed9bd95b70cb9da40389172ce078f626033d49d5b7ce21129a30, \"Chairperson not verified\");\r\n        currentPhase = phase;\r\n        if (currentPhase == Phase.Vote) emit VotingStarted();\r\n        if (currentPhase == Phase.Regs) emit RegsStarted();\r\n        if (currentPhase == Phase.Init) emit DappInit();\r\n    }\r\n    \r\n    function enterAddress(address voter) public validPhase(Phase.Regs) {\r\n        voterAddress = voter;\r\n    }\r\n    \r\n    function enterEmployeeAge(uint8 employeeAge) public validPhase(Phase.Regs) {\r\n        voters[voterAddress].employeeAge = employeeAge;\r\n    }\r\n    \r\n    function enterMember(bool isMember) public validPhase(Phase.Regs) {\r\n        voters[voterAddress].isMember = isMember;\r\n    }\r\n    \r\n    // function enterBondAvail(bool bondAvail) public validPhase(Phase.Regs) {\r\n    //     proposals[voterAddress].bondAvail = bondAvail;\r\n    // }\r\n    \r\n    function enterMemberOfBOP(bool isMemberOfBOP) onlyMemberOfCorp onlyLongTerm public validPhase(Phase.Regs) {\r\n        voters[voterAddress].isMemberOfBOP = isMemberOfBOP;\r\n    }\r\n    \r\n    function register(address voter) public validPhase(Phase.Regs) onlyChair {\r\n        require(voterToken == 0xc4124432ae40ed9bd95b70cb9da40389172ce078f626033d49d5b7ce21129a30, \"Chairperson not verified\");\r\n        require(voters[voter].isRegistered == false, \"Already registered\");\r\n        if(voters[voter].isMemberOfBOP == true) {\r\n            voters[voter].weight = 2;\r\n        } else {\r\n            voters[voter].weight = 1;\r\n        }\r\n        voters[voter].voted = false;\r\n        voters[voter].isRegistered = true;\r\n        voterCount++;\r\n    }\r\n    \r\n    \r\n    function vote(uint8 toProposal) public validPhase(Phase.Vote) checkRegister checkMax {\r\n        //Voter memory sender = voters[voterAddress]; \r\n        require(toProposal < proposals.length);\r\n        voters[voterAddress].voted = true;\r\n        voters[voterAddress].vote = toProposal; \r\n        voters[voterAddress].numVotes++;\r\n        proposals[toProposal].voteCount += 1 * voters[voterAddress].weight;\r\n        emit voted(\"Vote cast!\");\r\n    }\r\n    \r\n    function declarePresident() public validPhase(Phase.Done) onlyChair  returns (uint8 winningProposal) {\r\n       \r\n        uint256 winningVoteCount = 0;\r\n        for (uint8 prop = 0; prop < proposals.length; prop++) \r\n            if (proposals[prop].voteCount > winningVoteCount) {\r\n                winningVoteCount = proposals[prop].voteCount;\r\n                winningProposal = prop;\r\n            }\r\n       assert(winningVoteCount>=1);\r\n       emit VotingClosed(winningProposal);\r\n    }\r\n    \r\n    function hashMe(uint8 key, bytes32 password) public onlyChair validPhase(Phase.Init) {\r\n        voterToken = keccak256(abi.encodePacked(key, password));\r\n    }\r\n    \r\n    \r\n    //password : 0x60298f78cc0b47170ba79c10aa3851d7648bd96f2f8e46a19dbc777c36fb0c00, key : 12\r\n}",
  "sourcePath": "C:/Blockchain/VoteCorp-dapp/VoteCorp-contract/contracts/VoteCorp.sol",
  "compiler": {
    "name": "solc",
    "version": "0.5.16+commit.9c3226ce.Emscripten.clang"
  },
  "schemaVersion": "3.2.5",
  "updatedAt": "2020-12-04T15:58:08.066Z",
  "networkType": "ethereum",
  "devdoc": {
    "methods": {}
  },
  "userdoc": {
    "methods": {}
  }
}